S01200004D795F50726F6A6563742E7372656316
S11300000C942A000C94BF020C9447000C944700F3
S11300100C9447000C9447000C9447000C94470040
S11300200C9447000C9447000C9447000C94470030
S11300300C9447000C94EC020C9447000C94470079
S11300400C9447000C9447000C9447000C94470010
S11300500C94470011241FBECFE5D8E0DEBFCDBF0E
S113006010E0A0E6B0E0E0EAF5E102C005900D92F0
S1130070A23AB107D9F712E0A2EAB0E001C01D929A
S1130080AC39B107E1F70E948F020C94CE0A0C94AC
S1130090000087E886B980E487B90895369A97B155
S11300A0907E892B87B93699FECF24B135B1932F31
S11300B080E0820F911D0895A098A198A298A3981A
S11300C0A89AA99AAA9AAB9AA49AA59AA69AA79A20
S11300D00895AC98AD9AAE9AAF9A87EB9BE00197DE
S11300E0F1F700C00000989903C080916000089562
S11300F083B3869580FD03C080916100089583B326
S11301008695869580FD03C080916200089583B32F
S113011086958695869580FD03C080916300089539
S1130120AC9AAD98AE9AAF9A87EB9BE00197F1F742
S113013000C00000989903C080916400089583B3BF
S1130140869580FD03C080916500089583B38695EC
S1130150869580FD03C080916600089583B38695DB
S11301608695869580FD03C0809167000895AC9ABA
S1130170AD9AAE98AF9A87EB9BE00197F1F700C078
S11301800000989903C080916800089583B3869510
S113019080FD03C080916900089583B38695869598
S11301A080FD03C080916A00089583B38695869587
S11301B0869580FD03C080916B000895AC9AAD9A3A
S11301C0AE9AAF9887EB9BE00197F1F700C000006F
S11301D0989903C080916C00089583B3869580FD3F
S11301E003C080916D00089583B38695869580FD44
S11301F003C080916E00089583B386958695869595
S113020080FD03C080916F00089580E00895C19837
S1130210882314F4DF9A01C0DF98982F929596955D
S11302209695937090FF02C0DE9A01C0DE98982FD5
S113023092959695977090FF02C0DD9A01C0DD9863
S1130240982F92959F7090FF02C0DC9A01C0DC98B1
S1130250C39AE7EBFBE03197F1F700C00000C398C5
S1130260E7EBFBE03197F1F700C00000982F96957B
S11302709695969590FF02C0DF9A01C0DF98982F5B
S11302809695969590FF02C0DE9A01C0DE98982F4D
S1130290969590FF02C0DD9A01C0DD9880FF02C0F0
S11302A0DC9A01C0DC98C39A87EB9BE00197F1F7D5
S11302B000C00000C398E7EBFBE03197F1F700C002
S11302C000000895D49AD59AD69AD79AB99ABA9A28
S11302D0BB9AC29882E00E94070188E20E9407014B
S11302E081E00E9407018CE00E94070186E00E94E1
S11302F0070180E80E9407018FE59AEE0197F1F764
S113030000C000000895C19A882314F4DF9A01C044
S1130310DF98982F929596959695937090FF02C0CA
S1130320DE9A01C0DE98982F92959695977090FF6B
S113033002C0DD9A01C0DD98982F92959F7090FFBE
S113034002C0DC9A01C0DC98C39AE7EBFBE031976A
S1130350F1F700C00000C398E7EBFBE03197F1F739
S113036000C00000982F96959695969590FF02C030
S1130370DF9A01C0DF98982F9695969590FF02C05A
S1130380DE9A01C0DE98982F969590FF02C0DD9A00
S113039001C0DD9880FF02C0DC9A01C0DC98C39ADA
S11303A087EB9BE00197F1F700C00000C398E7EBEF
S11303B0FBE03197F1F700C0000008950F931F93FD
S11303C0CF938C01FC018081882351F0C0E00E940E
S11303D08301CF5FF801EC0FF11D80818823B9F709
S11303E0CF911F910F9108954F925F926F927F92D8
S11303F08F929F92AF92BF92CF92DF92EF92FF9231
S11304000F931F93CF93DF9300D000D0CDB7DEB707
S113041069837A838B839C836A3071058105910596
S113042028F48981805D0E94830164C089809A8058
S1130430AB80BC8001E0CC24DD247601C3940F2E74
S1130440FAE04F2EF0E05F2EF0E06F2EF0E07F2E0A
S1130450F02DC501B401A30192010E94910A490142
S11304605A01C701B601A30192010E94720A6B01ED
S11304707C010F5F8AE088169104A104B10448F757
S1130480442443940F2EFAE08F2EF0E09F2EF0E0E8
S1130490AF2EF0E0BF2EF02D10E02AC091E04916F7
S11304A071F469817A818B819C81A70196010E94F4
S11304B0910A822F805D0E948301412E18C0C701DA
S11304C0B601A50194010E94910A69017A0169812A
S11304D07A818B819C810E94910ACA01B901A5018C
S11304E094010E94910A862F805D0E94830101502D
S11304F00023A1F60F900F900F900F90DF91CF91F2
S11305001F910F91FF90EF90DF90CF90BF90AF902D
S11305109F908F907F906F905F904F9008958B9AEB
S113052085B7816085BF85B7826085BF8BB78064DE
S11305308BBF8FB780688FBF0E9462010E944308FF
S11305400E94F2070E941C080E945C000E9449005D
S11305508091A300823039F0833041F0813041F43E
S11305600E94FB0205C00E943C0302C00E943406A4
S113057081E00E94070180E80E940701E9CF1F92F1
S11305800F920FB60F9211242F933F934F935F93C3
S11305906F937F938F939F93AF93BF93EF93FF9347
S11305A08091A200833010F48F5F01C081E08093BA
S11305B0A2000E945208FF91EF91BF91AF919F91C9
S11305C08F917F916F915F914F913F912F910F90F8
S11305D00FBE0F901F9018951F920F920FB60F9297
S11305E011248F938CB18093A3008F910F900FBE31
S11305F00F901F9018958CE00E94070180E790E00F
S11306000E94DE0134C080E00E944E0023E0853861
S1130610920738F08AE50E9403088AE00E942A08BB
S113062026C022E08935920738F08CE30E94030843
S11306308EE10E942A081BC021E08D32920738F017
S113064088E20E94030886E40E942A0810C08536C6
S1130650910538F084E10E94030884E60E942A0888
S113066006C080E00E94030880E00E942A0880916E
S1130670A300813041F2089580E00E94030880E0E5
S11306800E942A088CE00E94070187E790E00E94FC
S1130690DE010AC081E00E944E0021E08D32920703
S11306A010F0939A01C093988091A300823091F343
S11306B008958F929F92AF92BF92CF92DF92EF9262
S11306C0FF920F931F93CF93DF93C0900C01D090B0
S11306D00D01E0900E01F0900F01C701B60120E07A
S11306E030E0A9010E94C008882309F4F6C0C0E0E4
S11306F0D0E0BB240F2EF4EA8F2EF0E09F2EF02DD5
S113070008E011E0AA24AA94F401EC0FFD1F8081F3
S11307108A3209F062C0CC0FDD1FCC0FDD1FC00F81
S1130720D11FC701B601288139814A815B810E94AA
S11307300F0ADC01CB0188839983AA83BB83CB2D69
S1130740D0E0FE01EE0FFF1FEE0FFF1FE00FF11FC1
S1130750608171818281938120E030E0A9010E944F
S1130760C008882309F49DC0CB2C9E012F5F3F4F06
S1130770FE013296EE0FFF1FEE0FFF1FE00FF11F79
S113078080819181A281B381F901EE0FFF1FEE0FE9
S1130790FF1FE00FF11F80839183A283B383280D91
S11307A0391DF9018081C80DD91D8883C394CC2DCE
S11307B0D0E0FE01EE0FFF1FEE0FFF1FE00FF11F51
S11307C0608171818281938120E030E0A9010E94DF
S11307D0C008882351F6BA2C67C08F3209F064C070
S11307E0CC0FDD1FCC0FDD1FC00FD11F68817981B5
S11307F08A819B81A70196010E94C408DC01CB0178
S113080088839983AA83BB83CB2DD0E0FE01EE0FAE
S1130810FF1FEE0FFF1FE00FF11F608171818281C6
S1130820938120E030E0A9010E94C0088823D9F117
S1130830CB2C9E012F5F3F4FFE013296EE0FFF1F20
S1130840EE0FFF1FE00FF11F80819181A281B38120
S1130850F901EE0FFF1FEE0FFF1FE00FF11F808362
S11308609183A283B383280D391DF9018081C80DBA
S1130870D91D8883C394CC2DD0E0FE01EE0FFF1F59
S1130880EE0FFF1FE00FF11F608171818281938160
S113089020E030E0A9010E94C008882351F6BA2C58
S11308A003C0BA2C01C0BA2CB394CB2DD0E0FE0106
S11308B03196EE0FFF1FEE0FFF1FE00FF11FC080F8
S11308C0D180E280F380C701B60120E030E0A901C5
S11308D00E94C008882309F017CFC0900C01D09063
S11308E00D01E0900E01F0900F01C701B60120E068
S11308F030E0A9010E94C008882309F4F6C0C0E0D2
S1130900D0E0BB240F2EF4EA8F2EF0E09F2EF02DC2
S113091008E011E0AA24AA94F401EC0FFD1F8081E1
S11309208B3209F062C0CC0FDD1FCC0FDD1FC00F6E
S1130930D11FC701B601288139814A815B810E9498
S11309405C08DC01CB0188839983AA83BB83CB2D0C
S1130950D0E0FE01EE0FFF1FEE0FFF1FE00FF11FAF
S1130960608171818281938120E030E0A9010E943D
S1130970C008882309F49DC0CB2C9E012F5F3F4FF4
S1130980FE013296EE0FFF1FEE0FFF1FE00FF11F67
S113099080819181A281B381F901EE0FFF1FEE0FD7
S11309A0FF1FE00FF11F80839183A283B383280D7F
S11309B0391DF9018081C80DD91D8883C394CC2DBC
S11309C0D0E0FE01EE0FFF1FEE0FFF1FE00FF11F3F
S11309D0608171818281938120E030E0A9010E94CD
S11309E0C008882351F6BA2C67C08D3209F064C060
S11309F0CC0FDD1FCC0FDD1FC00FD11F68817981A3
S1130A008A819B81A70196010E945B08DC01CB01CE
S1130A1088839983AA83BB83CB2DD0E0FE01EE0F9C
S1130A20FF1FEE0FFF1FE00FF11F608171818281B4
S1130A30938120E030E0A9010E94C0088823D9F105
S1130A40CB2C9E012F5F3F4FFE013296EE0FFF1F0E
S1130A50EE0FFF1FE00FF11F80819181A281B3810E
S1130A60F901EE0FFF1FEE0FFF1FE00FF11F808350
S1130A709183A283B383280D391DF9018081C80DA8
S1130A80D91D8883C394CC2DD0E0FE01EE0FFF1F47
S1130A90EE0FFF1FE00FF11F60817181828193814E
S1130AA020E030E0A9010E94C008882351F6BA2C46
S1130AB003C0BA2C01C0BA2CB394CB2DD0E0FE01F4
S1130AC03196EE0FFF1FEE0FFF1FE00FF11FC080E6
S1130AD0D180E280F380C701B60120E030E0A901B3
S1130AE00E94C008882309F017CF60910801709113
S1130AF0090180910A0190910B010E942C09C62ED4
S1130B00D72EE82EF92EF0E0CF16F0E0DF06F0E065
S1130B10EF06F0E8FF0629F48EE790E00E94DE017C
S1130B2071C0FF20E4F58DE20E94830166277727D8
S1130B30CB016C197D098E099F090E94F4018EE294
S1130B400E948301C0900801D0900901E0900A013D
S1130B50F0900B01C701B6010E942C090E945F09A5
S1130B609B01AC01C701B6010E945B0820E030E0A4
S1130B7048EC52E40E940F0A0E942C092AE030E05B
S1130B8040E050E00E94B30A6B017C01CA01B90144
S1130B900E94F401C701B6010E94F40133C0C701E9
S1130BA0B6010E94F4018EE20E948301C090080104
S1130BB0D0900901E0900A01F0900B01C701B60141
S1130BC00E942C090E945F099B01AC01C701B60178
S1130BD00E945B0820E030E048EC52E40E940F0AD7
S1130BE00E942C092AE030E040E050E00E94B30A61
S1130BF06B017C01CA01B9010E94F401C701B6016D
S1130C000E94F401DF91CF911F910F91FF90EF901B
S1130C10DF90CF90BF90AF909F908F900895809178
S1130C209B02823100F18932B0F0893338F080912F
S1130C309902813019F41092990204C080919902AA
S1130C40882349F480E80E94070181E08093990297
S1130C5081E180939B0288E10E94070180919A02BE
S1130C608F5F80939A0208952F923F924F925F92E2
S1130C706F927F928F929F92AF92BF92CF92DF92A8
S1130C80EF92FF920F931F93CF93DF9380E00E9424
S1130C90030880E00E942A0893988BE890E00E9461
S1130CA0DE018FE79FE4A2E181509040A040E1F78C
S1130CB000C000001092990210929A0281E00E94F2
S1130CC0070180E80E9407018EE00E94070181E08D
S1130CD080939B021092980200E010E0BB249924B8
S1130CE0CC24DD247601AA244424552432010F2E79
S1130CF0F3E68F2EF02D0F2EF4EA2F2EF0E03F2E88
S1130D00F02D58C10E946900C82F8D1709F445C100
S1130D10882309F444C18D3309F05EC0002309F02F
S1130D205BC0BB2009F458C080919A02882351F01B
S1130D308CE10E94070180919A02815080939A026B
S1130D408823B1F7112351F0F094E094D094C09427
S1130D50C11CD11CE11CF11C1150B1F7092D10E08C
S1130D60E801CC0FDD1FCC0FDD1FC85FDE4FC701CC
S1130D70B6010E945F09DC01CB0188839983AA83B1
S1130D80BB8380EC0E9407018DE30E948301F8017C
S1130D903196EE0FFF1FEE0FFF1FE85FFE4F80E05E
S1130DA090E0DC0180839183A283B383F101EA0D97
S1130DB0F11D118280919802882331F40E94590315
S1130DC001E010E0DDE3F6C082E990E00E94DE017C
S1130DD002E010E0DDE3EEC08C2F80538A3008F08F
S1130DE040C094E09B15E8F10023D9F58C2F0E94B4
S1130DF08301C701B6012AE030E040E050E00E94E0
S1130E00720A6B017C018C2F90E0C097AA2797FD92
S1130E10A095BA2FC80ED91EEA1EFB1E80919B0214
S1130E208F5F80939B02C114D104E104F10411F09B
S1130E30B39404C00F2EF5E0BF2EF02DF101EA0D9E
S1130E40F11D319780818F3241F4C114D104E10442
S1130E50F10419F481E0809398020E940F06DC2FBC
S1130E60A9C0CB3239F0CD3229F0CA3219F0CF32D1
S1130E7009F054C0023008F051C0BB2009F44EC040
S1130E80013049F1112351F0F094E094D094C094CE
S1130E90C11CD11CE11CF11C1150B1F7892D90E04B
S1130EA0880F991F880F991F08E011E0080F191F78
S1130EB0C701B6010E945F09DC01CB01F801808300
S1130EC09183A283B3839394F101EA0DF11DC0834E
S1130ED0A39410E013C0D101CC9381E00E940701D8
S1130EE080E80E9407018DE990E00E94DE01B4E0F1
S1130EF0B0939B0299249394AA24A3948C2F0E94C8
S1130F00830180919B028F5F80939B020E940F0656
S1130F10DC2F00E0BB24730162014CC0C336C1F472
S1130F2081E00E94070180E80E94070181E080932C
S1130F309B0210929902109298020E940F0600E000
S1130F4010E0BB24992473016201AA24D82D32C075
S1130F50CD3289F4002329F5BB2029F58DE20E94C6
S1130F6083011F5F80919B028F5F80939B020E948D
S1130F700F06DDE21FC0CB32C1F40023C1F4BB2055
S1130F80C1F48BE20E94830180919B028F5F809366
S1130F909B020E940F06DBE20DC0D82F0BC0D82F96
S1130FA009C0DC2F07C0DDE205C0DC2F03C0DBE293
S1130FB001C0DBE28091A300833009F4A3CEDF916A
S1130FC0CF911F910F91FF90EF90DF90CF90BF9042
S1130FD0AF909F908F907F906F905F904F903F90D5
S1130FE02F9008958FB580628FBD8C9A8FB58160E4
S1130FF08FBD8FB582608FBD8EB588608EBD8EB576
S113100081608EBD0895682F70E080E090E00E94BA
S11310105F0920E030EC4FE754E40E940F0A20E01F
S113102030E048EC52E40E94C4080E943109DC011B
S1131030CB0199BD88BD08958FB580688FBD8D9A09
S11310408FB581608FBD8FB582608FBD8EB5816095
S11310508EBD0895682F70E080E090E00E945F09E3
S113106020E030EC4FE754E40E940F0A20E030E027
S113107048EC52E40E94C4080E943109DC01CB010F
S11310809BBD8ABD089583E389B9549A539A80B568
S1131090806880BD80B5826080BD80B5846080BD7D
S11310A0579A08959BB195FFFDCF8CB908955F9B26
S11310B0FECF8CB108955058BB27AA270ED075C116
S11310C066D130F06BD120F031F49F3F11F41EF45F
S11310D05BC10EF4E095E7FB51C1E92F77D180F3B2
S11310E0BA17620773078407950718F071F49EF521
S11310F08FC10EF4E0950B2EBA2FA02D0B01B90170
S113110090010C01CA01A0011124FF27591B99F079
S1131110593F50F4503E68F11A16F040A22F232F85
S1131120342F4427585FF3CF469537952795A795D5
S1131130F0405395C9F77EF41F16BA0B620B730B7C
S1131140840BBAF09150A1F0FF0FBB1F661F771FED
S1131150881FC2F70EC0BA0F621F731F841F48F4A2
S1131160879577956795B795F7959E3F08F0B3CF28
S11311709395880F08F09927EE0F97958795089512
S1131180D9D008F481E008950CD00FC107D140F004
S1131190FED030F021F45F3F19F0F0C0511139C195
S11311A0F3C014D198F39923C9F35523B1F3951BD4
S11311B0550BBB27AA2762177307840738F09F5F74
S11311C05F4F220F331F441FAA1FA9F333D00E2EE3
S11311D03AF0E0E830D091505040E695001CCAF750
S11311E029D0FE2F27D0660F771F881FBB1F261715
S11311F037074807AB07B0E809F0BB0B802DBF01E8
S1131200FF2793585F4F2AF09E3F510568F0B6C000
S113121000C15F3FECF3983EDCF3869577956795C4
S1131220B795F7959F5FC9F7880F911D9695879598
S113123097F90895E1E0660F771F881FBB1F6217B7
S113124073078407BA0720F0621B730B840BBA0B75
S1131250EE1F88F7E095089504D06894B111D9C0C1
S11312600895BCD088F09F5790F0B92F9927B751B3
S1131270A0F0D1F0660F771F881F991F1AF0BA9556
S1131280C9F712C0B13081F0C3D0B1E00895C0C035
S1131290672F782F8827B85F39F0B93FCCF386954C
S11312A077956795B395D9F73EF4909580957095A9
S11312B061957F4F8F4F9F4F0895E89409C097FB26
S11312C03EF490958095709561957F4F8F4F9F4F19
S11312D09923A9F0F92F96E9BB279395F69587955D
S11312E077956795B795F111F8CFFAF4BB0F11F420
S11312F060FF1BC06F5F7F4F8F4F9F4F16C08823C7
S113130011F096E911C0772321F09EE8872F762FFC
S113131005C0662371F096E8862F70E060E02AF03D
S11313209A95660F771F881FDAF7880F9695879529
S113133097F90895990F0008550FAA0BE0E8FEEFFE
S113134016161706E807F907C0F012161306E40785
S1131350F50798F0621B730B840B950B39F40A267E
S113136061F0232B242B252B21F408950A2609F45C
S1131370A140A6958FEF811D811D089597F99F6760
S113138080E870E060E008959FEF80EC0895002409
S11313900A941616170618060906089500240A94D6
S11313A012161306140605060895092E0394000C5C
S11313B011F4882352F0BB0F40F4BF2B11F460FFEB
S11313C004C06F5F7F4F8F4F9F4F089557FD905814
S11313D0440F551F59F05F3F71F04795880F97FBF5
S11313E0991F61F09F3F79F08795089512161306AF
S11313F01406551FF2CF4695F1DF08C016161706DE
S11314001806991FF1CF8695710561050894089512
S1131410E894BB2766277727CB0197F908950BD06B
S1131420C4CFB5DF28F0BADF18F0952309F0A6CFB2
S1131430ABCF1124EECFCADFA0F3959FD1F3950F64
S113144050E0551F629FF001729FBB27F00DB11D44
S1131450639FAA27F00DB11DAA1F649F6627B00DD4
S1131460A11D661F829F2227B00DA11D621F739FBD
S1131470B00DA11D621F839FA00D611D221F749FCB
S11314803327A00D611D231F849F600D211D822F12
S1131490762F6A2F11249F5750408AF0E1F0882359
S11314A04AF0EE0FFF1FBB1F661F771F881F915066
S11314B05040A9F79E3F510570F060CFAACF5F3F1F
S11314C0ECF3983EDCF3869577956795B795F79599
S11314D0E7959F5FC1F7FE2B880F911D9695879521
S11314E097F90895629FD001739FF001829FE00DE8
S11314F0F11D649FE00DF11D929FF00D839FF00D8F
S1131500749FF00D659FF00D9927729FB00DE11D3A
S1131510F91F639FB00DE11DF91FBD01CF01112417
S11315200895A1E21A2EAA1BBB1BFD010DC0AA1F20
S1131530BB1FEE1FFF1FA217B307E407F50720F038
S1131540A21BB30BE40BF50B661F771F881F991FB3
S11315501A9469F760957095809590959B01AC01FC
S1131560BD01CF01089597FB092E05260ED057FD26
S113157004D0D7DF0AD0001C38F45095409530953C
S113158021953F4F4F4F5F4F0895F6F79095809503
S1131590709561957F4F8F4F9F4F0895F894FFCFBB
S11315A02F2A2D2B3D3936333038353263373431D9
S11315B04D6F64652041004D6F64652042004F7596
S11315C074204F662052616E6765004D6F6465201C
S11315D043004D617468204572726F7200416E73EE
S10515E02E00D7
S9030000FC
